:100000000000042079030000610300006303000086
:1000100065030000670300006903000000000000A2
:100020000000000000000000000000006B03000062
:100030006D030000000000006F030000710300006A
:100040007303000073030000993500007303000080
:100050007303000073030000B1320000730300005B
:1000600073030000730300007303000073030000B8
:1000700073030000730300007303000073030000A8
:1000800073030000E51F000073030000730300000A
:1000900025200000730300007303000073030000B9
:1000A0007303000073030000730300007303000078
:1000B0007303000073030000000000000000000054
:1000C0007303000073030000730300007303000058
:1000D0007303000073030000730300007303000048
:1000E00073030000730300007303000000000000AE
:1000F0000000000073030000000000007D400000CD
:1001000000000000000000000000000000000000EF
:1001100000000000000000000000000000000000DF
:1001200000000000000000000000000000000000CF
:1001300000000000000000000000000000000000BF
:1001400000000000000000000000000000000000AF
:10015000000000000000000000000000000000009F
:10016000000000000000000000000000000000008F
:10017000000000000000000000000000000000007F
:10018000000000000000000000000000000000006F
:10019000000000000000000000000000000000005F
:1001A000000000000000000000000000000000004F
:1001B000000000000000000000000000000000003F
:1001C000000000000000000000000000000000002F
:1001D000000000000000000000000000000000001F
:1001E000000000000000000000000000000000000F
:1001F00000000000000000000000000000000000FF
:10020000364937480A1A02D0072291438D463549AC
:1002100035480A1A06D00722914381F30988022241
:1002200082F3148831483249324A00F045F83248A6
:100230003249334A00F040F832483349334A00F03B
:100240003BF833483349344A00F036F833483449F0
:10025000344A00F031F834483449354A00F02CF87B
:1002600034483549354A00F027F8354835490022E9
:1002700000F02DF834483549002200F028F83448C1
:100280003449091A082903DB0022026004300160A6
:10029000314A90471F482049884205D002680430FF
:1002A00003B4904703BCF7E700208646EC460020E5
:1002B00000212A4A9047FEE7884207D0521A05D00B
:1002C000037801300B700131013AF9D1704788424F
:1002D00002D002700130FAE77047000000000420ED
:1002E00000E0032000000420000004202489010015
:1002F00000000020D4020020D8030000D803000032
:10030000703301002489010000000020000000205B
:10031000C4330100C4330100C4330100C4330100FD
:10032000C4330100C4330100C4330100C4330100ED
:1003300024890100F88B0100D4020020D40200209F
:10034000D4020020340601203406012034060120A6
:100350003406012034260120A1030000E1570000EB
:10036000FEE7FEE7FEE7FEE7FEE7FEE7FEE7FEE765
:10037000FEE7FEE7704700BF1048804710484FF087
:100380000701884385460F4880470F48016841F4BC
:1003900070010160BFF34F8FBFF36F8FFFF730BF66
:1003A0000A480B490B4A884207D0521A05D00378F5
:1003B00001300B700131013AF9D17047750300002B
:1003C000000004201D63000088ED00E0C43301003C
:0803D0000000002000000020E5
:1003D80000B5A1B00590049103920293049802F02D
:1003E80078FC039B1593029B169300231793002315
:1003F8008DF8603000231993229B1A9300231F93D2
:100408000FA91F9B0822049802F020FD08231F93C0
:10041800119B1293BDF84030ADF84C30BDF8423016
:10042800ADF84E3000238DF851309DF83C3003F084
:100438000303DBB2012B26D10F9BC3F395231C9337
:100448009DF83C30C3F3C203DBB28DF85030BDF8E1
:100458003C30C3F38313DBB21B931B9B9A0009A99F
:100468001F9B049802F0F2FC1B9B9B001F9A1344ED
:100478001F9312AA09A915AB009313461B9A1C983F
:1004880000F072FF2FE09DF83C3003F00303DBB26D
:10049800022B28D1BDF83E30C3F389139BB21E93BB
:1004A8009DF83C30C3F3C203DBB28DF850301E9B7D
:1004B800082B28BF08231D9307A91F9B1D9A049882
:1004C80002F0C4FC1F9A1D9B13441F931E9A1D9B88
:1004D800D31A1E9315AB12AA07A81D9900F0E6FFC0
:1004E8001E9B002BE3D1049802F002FC00BF21B050
:1004F8005DF804FB00B583B00190019B1B781A4698
:100508000C4B9B5C002B05D0019B0433184604F070
:1005180079FF0BE0019B1B781A46064B9B5C002B6E
:1005280004D1019B0C33184604F058F900BF03B0FE
:100538005DF804FBD809002000B587B0039002914C
:1005480013468DF8073000230593039B1B781A4642
:10055800114B9B5C002B09D0039B04339DF80720AB
:100568000299184604F07CFF05900FE0039B1B7866
:100578001A46094B9B5C002B08D1039B0C339DF852
:1005880007200299184604F09FF90590059B184624
:1005980007B05DF804FB00BFD809002082B00190C5
:1005A8000091034B01221A7000BF02B0704700BFD0
:1005B8001403002030B58DB003468DF80730194B71
:1005C80002AC1D460FCD0FC495E80F0084E80F005C
:1005D800062302934FF0FF3303934FF0FF33049346
:1005E8004FF0FF3305934FF0EB7308939DF80730F6
:1005F800002B01D00C4A00E0002202AB19460B4840
:1006080002F0A6FC0B900B9B0A930A9B002B02D0CE
:100618000A9800F0BFFF064A9DF80730137000BF24
:100628000DB030BDC4330100A50500000000002056
:100638001503002000B583B001238DF807309DF81D
:1006480007301846FFF7B6FF00BF03B05DF804FB9C
:1006580000B589B0039002910192019B8DF81F307B
:10066800114B00221A709DF81F301A4602990F4844
:10067800FFF762FF0690069B0593059B002B02D0AF
:10068800059800F087FF00BF094B1B78002B07D0A7
:10069800054B1B78DBB283F00103DBB2002BF3D1EF
:1006A80000BF09B05DF804FB14030020000000201F
:1006B8001503002000B585B003900291054B009307
:1006C8004023054A02990398FFF782FE00BF05B050
:1006D8005DF804FB59060000D402002082B00190A6
:1006E80000BF02B07047000000B583B00190054814
:1006F800FFF700FF0020FFF75DFF00BF03B05DF8C4
:1007080004FB00BF0000002082B00190019BDB6861
:1007180001225A7100BF02B07047000000B583B0D3
:100728004FF0FF330193FFF785FF0421054800F0E0
:1007380037FD01900348FFF7E7FF00BF03B05DF8FE
:1007480004FB00BF7033010000B583B00190009135
:10075800019B1B681B6800990198984700BF03B06C
:100768005DF804FB00B583B00190019B1B685B68D2
:100778000198984700BF03B05DF804FB00B583B04B
:100788000190019B1B689B680198984700BF03B0C4
:100798005DF804FB82B001900B468DF80330019B95
:1007A800DB689DF803201A7100BF02B0704782B061
:1007B8000190019BDB681B79184602B0704782B034
:1007C8000190019BDB6801225A7100BF02B070479B
:1007D80082B00190019BDB685B79184602B07047D4
:1007E80000B585B001900091154BFF229A60144B1B
:1007F80000221A60124B00225A60114B0022C3F8E3
:1008080018240F4B0022C3F814240D4B002283F840
:1008180020240C4802F0C2F90390039B002B01D05E
:10082800039B08E0084802F025FB084A084BD31A46
:10083800DB0802930023184605B05DF804FB00BFEF
:1008480080040020B033010004340100B0330100FB
:1008580080330100024A034BD31ADB08184670475D
:10086800B03301008033010000B587B001900B461A
:100878008DF803309DF80330002B1FD0FFF7EAFFF7
:1008880004900023059313E0059B9B000E4A134434
:100898000393039B1B881A46019B1B689A4204D149
:1008A800019B059A1A60002309E0059B0133059313
:1008B800059A049B9A42E7D3052300E000231846D3
:1008C80007B05DF804FB00BF0000002000B585B04C
:1008D80001900B468DF803309DF8032001AB1146BB
:1008E8001846FFF7C1FF0346002B07D1019BDB0029
:1008F800054A13440393039B1B6800E00023184632
:1009080005B05DF804FB00BF8033010084B001909E
:100918000B468DF80330019BDB00174A1344029302
:100928009DF80330013B032B1CD801A252F823F099
:100938004909000051090000590900006309000035
:1009480002238DF80F3011E004238DF80F300DE0ED
:10095800029B1B798DF80F3008E0029B5B798DF8BC
:100968000F3003E000238DF80F3000BF9DF80F30E3
:10097800184604B0704700BF8033010084B001906E
:10098800009100238DF80F30019B1B7803F00403BE
:10099800DBB2002B24D0019B1B78C3F30103DBB22D
:1009A800012B02D0022B0CD017E0009B1B68019A88
:1009B8001288C2F38312D2B213449A1C009B1A60A5
:1009C8000BE0009B1B68019A5288C2F3891292B20D
:1009D80013449A1C009B1A6000BF01238DF80F3046
:1009E8009DF80F30184604B07047000000B58BB072
:1009F8000023ADF826303B4801F04FFC3A4801F09F
:100A08004CFC3A4B5B680493384B9B680693049AFA
:100A1800069B134002339B00344A13440433089363
:100A280004AB19460898FFF7A9FF0346002B09D025
:100A3800049A069B134002339B002C4A1344043348
:100A48000893EDE700BF0023079311E0049B5A1CAD
:100A58000492069A1340079A920001A90A4423496E
:100A680002339B000B445B681360079B01330793B9
:100A7800079B012BEAD99DF80430C3F30103DBB2CD
:100A8800012B11D0022B00D01CE0BDF80A30ADF8C4
:100A98002630BDF80630C3F389139BB203339A0896
:100AA800049B134404930DE0BDF80A30ADF82630DA
:100AB800BDF80430C3F38313DBB21A46049B134416
:100AC800049300BF084801F0F4FB0590059B002B38
:100AD80002D0049B054A5360BDF8263018460BB077
:100AE8005DF804FB9808002094080020800400208A
:100AF80000B585B00021074801F058FB0390039B1F
:100B08000293029B83F310030193019B184605B0DF
:100B18005DF804FB9C08002000B589B003900291A1
:100B280001920093039B1B0C0693FFF7E1FF0790CC
:100B3800079B1904009B5A1C0A9B1340069A0A43F8
:100B48001B4902339B000B445A60009A0A9B1340CE
:100B580002339B00164A134404330593039B03F0A6
:100B68000703D9B2059A137861F3C5031370019B83
:100B780003F00F03D9B2059A138861F38913138020
:100B8800029BC3F31501059A136861F39F23136051
:100B9800059A1378012161F301031370059A1378FC
:100BA8006FF38203137000BF09B05DF804FB00BF48
:100BB8008004002000B58BB00390029113468DF895
:100BC8000730039B0233089301238DF81F30002060
:100BD80001F0D8FA3E4B1A68029B1A603C4B9A689F
:100BE8003B4B59683A4B1B68CB1A134401330993A2
:100BF80014E00121374801F020FBFFF7F7FE0590CC
:100C08000599344801F019FB314B9A68304B596803
:100C18002F4B1B68CB1A134401330993089A099B7D
:100C28009A42E6D89DF81F30002B48D00023049341
:100C38009DF80730002B17D09DF81030012262F381
:100C480001038DF810309DF8103043F004038DF83F
:100C58001030039B03F00F03DAB2BDF8103062F3D3
:100C68008913ADF8103016E09DF81030022262F3B7
:100C780001038DF810309DF8103043F004038DF80F
:100C88001030039BC3F309039AB2BDF8123062F324
:100C98008F13ADF812300E4B1A680D4B9B6813403A
:100CA80002339B000A4A134404330693049A069BB2
:100CB8001A60074B1A68089B1344054A1360002002
:100CC80001F069FA9DF81F3018460BB05DF804FB77
:100CD800800400209C08002000B58BB0059004918A
:100CE800039202931F4B9B68079306AB0122194698
:100CF8000298FFF75FFF0346002B24D0069B0233C0
:100D080009930023089311E0089B9B00039A1A4457
:100D1800099B591C099107990B4012681149023324
:100D28009B000B445A60089B01330893089A029B66
:100D38009A42E9D3069A079B00931346029A0499AC
:100D48000598FFF7E9FE074B93F82034002B05D0F0
:100D580000BF00F025F80346002BFAD100BF0BB006
:100D68005DF804FB8004002000B583B00190009179
:100D78000023002200990198FFF7AEFF00BF03B0DF
:100D88005DF804FB054B5A68044B1B689A420CBF7C
:100D980001230023DBB21846704700BF80040020FF
:100DA80000B599B0FFF7EEFF0346002B01D00023F2
:100DB800B5E19A4B0022C3F81824BFF34F8F974B25
:100DC8005B680493954B9B681093049A109B13409F
:100DD80002339B00914A1344043311930023179361
:100DE8000023169300230F9304AB19461198FFF7BD
:100DF800C5FD0346002B19D0884BD3F81834002BB7
:100E080014D1864B1A68049B9A4205D8834B1B68F9
:100E1800824A5360002382E1049A109B13400233F4
:100E28009B007E4A134404331193DDE70023159396
:100E380011E0049B5A1C0492109A1340159A9200D0
:100E480001A90A44754902339B000B445B6813608F
:100E5800159B01331593159B012BEAD99DF8043096
:100E680003F00303DBB2022B40F09C80BDF8063090
:100E7800C3F389139BB20D93BDF80630C3F38913EE
:100E88009BB2502B28BF50239BB20C930C9BC3F3EF
:100E980009039AB2BDF8063062F38F13ADF8063035
:100EA8000C9B08330B939DF80430C3F3C203DBB2E9
:100EB8000F930B995A4801F07CFE1790179B002B53
:100EC80000F0D080179801F004FF01A9169B0822B2
:100ED800179801F0A7FF169B08331693049BDA4373
:100EE800109B134001339B000A930C9A0A9B9A4269
:100EF80042D90A9B002B08D0049A109B1340023356
:100F08009B00464A1344043300E0464B08930A9B6F
:100F1800002B02D00A9BDBB201E00C9BDBB28DF800
:100F28001F300A9B002B01D03E4B00E000230693A4
:100F38000A9B002B06D00C9BDAB20A9BDBB2D31AB1
:100F4800DBB200E000238DF817309DF81F20169BB8
:100F58000899179801F066FF9DF81F30169A1344F8
:100F68001693069B002B16D09DF81720169B069902
:100F7800179801F057FF0EE0049A109B13400233B4
:100F88009B00264A134404330993169B0C9A09992B
:100F9800179801F047FF0D9B03339A08049B1344ED
:100FA80004935FE09DF8043003F00303DBB2012BE8
:100FB80058D1BDF80430C3F38313DBB2062B28BF26
:100FC8000623DAB2BDF8043062F38913ADF80430B1
:100FD800BDF80430C3F38313DBB202330E939DF8DC
:100FE8000430C3F3C203DBB20F930E9B9B00194678
:100FF8000B4801F0DEFD1790179B002B32D0179895
:1010080001F067FE01A9169B0822179801F00AFF54
:10101800169B08331693002315931AE080040020CA
:10102800B03301008C040020049B5A1C0492109ACF
:10103800134002339B003C4A1344191D169B04229B
:10104800179801F0EFFE169B04331693159B013396
:101058001593BDF80430C3F38313DBB21A46159B0E
:101068009342E1D3179B002B39D02F4BD3F8103480
:1010780014932D4BD3F81834002B1BD0179801F07C
:1010880037FE46E000238DF84F301498FFF7A0FB99
:101098000346002B02D001238DF84F309DF84F30C6
:1010A800002B03D017991498FFF74EFB149BDB68AD
:1010B8001B681493149B002BE4D1179801F018FEB9
:1010C800002001F05FF8184BD3F81834002B02D138
:1010D800049B154A5360002001F05DF819E0124B9B
:1010E800D3F81034129306E01298FFF747FB129BCF
:1010F800DB681B681293129B002BF5D10B4A0C4B33
:10110800D31ADB081B0443F002030A491846FFF709
:101118002BFEFFF737FE034683F00103DBB21846C8
:1011280019B05DF804FB00BF80040020A83301005B
:10113800803301001434010000B585B00023039307
:1011480023E0164BD3F81034029301238DF80730AF
:101158000FE00298FFF72BFB03461A46039B9342C6
:1011680003D100238DF8073006E0029BDB681B687B
:101178000293029B002BECD19DF80730002B01D085
:10118800039B07E0039B01330393039B092BD8DDE3
:101198004FF0FF33184605B05DF804FB80040020CB
:1011A80000B585B001900B468DF80330FFF7C4FFFA
:1011B8000390039BB3F1FF3F01D1039B22E0039B04
:1011C800DBB219460198FFF7E5FA104BD3F8103453
:1011D800002B08D10D4A019BC2F81034019BDB6833
:1011E80000221A600DE0094BD3F81034DA68019B2D
:1011F800DB6812681A60054BD3F81034DB68019A73
:101208001A60039B184605B05DF804FB80040020B3
:1012180000B583B00C4BD3F8103401930A4B01226C
:1012280083F8202409E00198FFF7C9FA0198FFF72D
:1012380099FA019BDB681B680193019B002BF2D193
:1012480000BF03B05DF804FB8004002082B0019069
:10125800009100BF02B0704710B584B003900291AE
:10126800039BDB88002B0AD0039BDB881A461F4BA5
:10127800009313461E4A1F49029801F0DCF8039BAD
:101288001B7A052B2ED0039B5B7A002B12D0039B75
:101298009B881A46039B1B7A19461046FFF736FBB4
:1012A80003461A46144B53F822301A46134902983B
:1012B80001F0C1F8039B1B6819460298FFF7C6FFA7
:1012C800039B1B7A1A460E4B53F82240039B9B88BC
:1012D80000211846FFF7FAFA034622460949029800
:1012E80001F0A9F800BF04B010BD00BF48340100E8
:1012F800583401009034010030000020A834010067
:101308001C000020AC34010000B585B003900291A8
:1013180013468DF80730039B1B7A052B0FD0039BD0
:101328005B7A002B06D00D4B1B681A460C490298B5
:1013380001F081F80B49029801F07DF807E09DF86B
:101348000730002B03D00749029801F074F802987F
:1013580001F059F800BF05B05DF804FB300000202B
:10136800A8340100B834010030B58BB0079006915D
:10137800059204930E9B1B7B8DF827300E9B002251
:101388001A730E990498FFF767FF059B062B7FD801
:1013980001A252F823F000BFBD130000C7130000DC
:1013A800D7130000EB1300000914000031140000EB
:1013B8006114000007990E9801F03DF869E0069B5A
:1013C8001B681A4607990E9801F035F861E0069BEC
:1013D8001A68069B04331B6807990E9801F02BF8CE
:1013E80057E0069B1A68069B04331968069B083366
:1013F8001B6800930B4607990E9801F01CF848E00B
:10140800069B1968069B04331868069B08331B68FB
:10141800069A0C3212680192009303460A4607990D
:101428000E9801F008F834E0069B1868069B043310
:101438001C68069B08331B68069A0C3212680699CA
:1014480010310968029101920093234602460799D8
:101458000E9800F0F0FF1CE0069B1C68069B043306
:101468001D68069B08331B68069A0C321268069999
:1014780010310968069814300068039002910192AF
:1014880000932B46224607990E9800F0D4FF00E0FF
:1014980000BF00220E990498FFF736FF0E9B9DF8B7
:1014A80027201A7300BF0BB030BD00BF00B587B04E
:1014B8000390029101920093029B082B5CD8009B39
:1014C8001B7B8DF81330009B00221A73009901983A
:1014D800FFF7C2FE0023059314E0059A029B9A4287
:1014E80009D2039A059B13441B781A46244900988D
:1014F80000F0A1FF03E02349009800F09CFF059B42
:1015080001330593059B072BE7D91F49009800F085
:1015180092FF0023059322E0059A029B9A4217D274
:10152800039A059B13441B788DF812309DF81230EE
:10153800184611F089FA0346002B02D09DF81230A4
:1015480000E02E231A461149009800F074FF03E0CA
:101558000F49009800F06FFF059B01330593059B29
:10156800072BD9D9012200990198FFF7CDFE009BDE
:101578009DF813201A7300E000BF07B05DF804FB64
:10158800BC340100C4340100C8340100CC3401006B
:10159800D034010000B587B00190002303930023E5
:1015A8000493019B059303AB1A46002144F2010002
:1015B80000F016F800BF07B05DF804FBBFF34F8FCB
:1015C800054BDB6803F4E0620349044B1343CB602B
:1015D800BFF34F8F00BFFDE700ED00E00400FA0500
:1015E80000B585B003900291019272B6FFF710FE24
:1015F80000BFFFF7D5FB0346002BFAD1114A124B67
:10160800D31ADB081B0443F0010310491846FFF7FF
:10161800ABFB0F4B1B6803F00103002B00D000BE8F
:10162800084A094BD31ADB081B0443F00203094993
:101638001846FFF799FBFFF7C1FF00BF05B05DF83B
:1016480004FB00BFA833010080330100D43401003B
:10165800F0ED00E0E034010082B003468DF8073079
:101668009DF8073003F01F0205499DF907305B0913
:10167800012000FA02F241F8232000BF02B07047AF
:1016880000E100E082B003468DF807309DF807308E
:1016980003F01F0206499DF907305B09012000FA93
:1016A80002F2203341F8232000BF02B0704700BF88
:1016B80000E100E082B003468DF807309DF807305E
:1016C80003F01F0206499DF907305B09012000FA63
:1016D80002F2403341F8232000BF02B0704700BF38
:1016E80000E100E082B003468DF807309DF807302E
:1016F80003F01F0206499DF907305B09012000FA33
:1017080002F2603341F8232000BF02B0704700BFE7
:1017180000E100E082B0034600918DF807309DF9A2
:101728000730002B0CDA009BDAB20C499DF8073021
:1017380003F00F03043B5201D2B20B441A7609E0BE
:10174800009BDAB206499DF907305201D2B20B4428
:1017580083F8002300BF02B0704700BF00ED00E02F
:1017680000E100E000B585B00190019B002B0AD094
:10177800074B43F001030393019B9B010293039BD7
:101788000298984700E000BF05B05DF804FB00BF71
:10179800F034010000B583B00190064A019BC2F8FD
:1017A800083506211120FFF7B5FF00BF03B05DF82B
:1017B80004FB00BF0010014008B50D4B4FF4803208
:1017C800C3F844230A4B4FF48032C3F80423112092
:1017D800FFF788FF1120FFF73FFF054B01221A6032
:1017E8002F20FFF7BFFF034B01221A7000BF08BD6F
:1017F80000100140C209002008B51120FFF742FF80
:101808000E4B4FF48032C3F848230C4B4FF4803210
:10181800C3F80823094B01225A602F20FFF7A2FFC3
:10182800064B01229A60064B00221A602F20FFF710
:1018380099FF044B00221A7000BF08BD0010014038
:10184800B4090020C2090020024BD3F80435184619
:10185800704700BF0010014082B001900091019ACA
:10186800009BD31A23F07F43184602B0704700004C
:1018780082B00190034A019BC2F8403500BF02B014
:10188800704700BF0010014086B00190284B1B68CC
:10189800002B03D1264A019B136045E0019B1A687F
:1018A800234B1B681B689A4210D8214B1B68196888
:1018B800019B1A681E4B1B688A1A1A601C4B1A680F
:1018C800019BDA611A4A019B13602DE0019B1B689A
:1018D8000393174B1B680593154B1B68049309E08A
:1018E800049B1B68039AD31A0393049B0593049BD8
:1018F800DB690493049B002B04D0049B1B68039AA8
:101908009A42EDD8049B002B05D0049B1A68039BD0
:10191800D21A049B1A60019B039A1A60019B049ACD
:10192800DA61059B019ADA6100BF06B0704700BF13
:10193800B009002000B587B001902A4B1B680393BB
:10194800284B1B680593059B049308E0049A019BA8
:101958009A4208D0049B0593049BDB690493049B7B
:10196800002BF3D100E000BF049B002B01D1002322
:1019780033E0059A049B9A4214D11A4B1B68DB6921
:10198800184A1360174B1B68002B0BD1164B01220A
:101998009A60164B00221A60154B01221A702F20EC
:1019A800FFF7E0FE049B1B680293049BDA69059B22
:1019B800DA61059BDB690493049B002B05D0049B2B
:1019C8001A68029B1A44049B1A60064B1B68039A08
:1019D8009A4214BF01230023DBB2184607B05DF812
:1019E80004FB00BFB009002000100140B40900202A
:1019F800C309002008B51120FFF75CFE00BF08BD31
:101A080008B51420FFF756FE00BF08BD00B583B027
:101A18000190019B5B69019A92691046984700BF43
:101A280003B05DF804FB000000B585B02B4B1B68C4
:101A3800002B4ED000230193FFF706FF0246284BE8
:101A48001B6819461046FFF707FF0290234B1B68D7
:101A580003931DE0039B1B68029A9A421CD3039BC5
:101A68001B68029AD31A0293039B1B68019A1344BA
:101A78000193039B0093039BDB690393009B1B7CEF
:101A8800002B05D0009B00221A740098FFF7BEFFB8
:101A9800039B002BDED100E000BF124B1A78124BDB
:101AA8001B789A420CD1104B1B780133DAB20E4BDB
:101AB8001A700D4B1B78022B02D10B4B00221A70A7
:101AC800094B1B781946094A019B42F82130FFF758
:101AD80097FF00BF05B05DF804FB00BFB009002008
:101AE800B4090020C0090020C1090020B80900205D
:101AF80082B00190184B1A78184B1B789A4223D061
:101B0800154B1B780133DAB2134B1A70124B1B7842
:101B1800022B02D1104B00221A700F4B1B781A4669
:101B28000F4B53F82220019B1A60019B1A680D4B3A
:101B38001B6813440B4A13600A4B1B6823F07F434E
:101B4800084A1360012303E0019B00221A60002366
:101B5800184602B0704700BFC0090020C109002024
:101B6800B8090020B409002088B0039002910192BE
:101B78000023079338E0204B1B680693069B1B68DD
:101B8800039A9A4206D2069B1A68039BD21A069BAE
:101B98001A602DE0069B1B68039AD31A0393069BD1
:101BA8001B68079A13440793069B00221A60124B7E
:101BB8001B680593069BDB690F4A1360069BDB686D
:101BC800002B11D0029A079B134423F07F42069BF7
:101BD8005A60069BDA68069B9A60019B1A68069B06
:101BE800DA61019B059A1A60034B1B68002BC2D16E
:101BF80000BF08B0704700BFB009002000B589B029
:101C0800019000238DF81F30664B1B680593AAE0EE
:101C1800019B002B05D0019B0693069BDB69019372
:101C280061E0614B1B781A4613465B001344DB00E6
:101C38005D4A1344043304935B4B1B780133DAB2D7
:101C4800594B1A70584B1A78574B9B789A4202D1C5
:101C5800554B00221A70049B5B680693049B1B7803
:101C6800022B04D0032B1BD0012B1FD01DE0049B9B
:101C78005B681846FFF75EFE0346002B02D001237F
:101C88008DF81F30069B00221A746CE0454B1B68C8
:101C98000393039B00221A74039BDB69414A136078
:101CA800404B1B68002BF1D15DE05CE000BF069B58
:101CB8001B7C002B00D056E0049B9A68069B5A6058
:101CC800049BDA68069B9A60049B1A69069BDA6093
:101CD800049B5A69069B9A61344B1B78002B02D0EF
:101CE800069B00225A60069B5A68314B1B68D31A20
:101CF80023F07F432F4A93420ED8069B5A682C4BF9
:101D08001B6819461046FFF7A7FD0246069B9B680D
:101D18001A44069B1A6017E0254B1A68069B5B68F5
:101D280019461046FFF798FD0290069B9B68029A99
:101D38009A4206D2069B9A68029BD21A069B1A60A0
:101D480002E0069B00221A60069B00225A60069B4E
:101D580000229A60069B01221A74069B0022DA610F
:101D68000698FFF791FD019B002B7FF451AF0E4BB6
:101D78001A780D4B5B789A427FF44AAF9DF81F3072
:101D8800002B04D1074B1B68059A9A4201D0012306
:101D980000E0002303F00103DBB2184609B05DF848
:101DA80004FB00BFB0090020A4080020C3090020DC
:101DB800B4090020FEFF7F0010B588B00190274BC2
:101DC8001B68002B44D0254B1B681B680793FFF743
:101DD8003BFD0690224B1B68059305990698FFF773
:101DE8003BFD0346033304931E4B1B7883F001032A
:101DF800DBB2002B01D0FFF7DFFC049A079B93426C
:101E080038BF1346059A13440593059B23F07F4377
:101E180005930598FFF72CFDFFF716FD039006992B
:101E28000398FFF719FD0346DC1C06990598FFF790
:101E380013FD03469C420DD9FFF706FD03461846DD
:101E4800FFF716FD2F20FFF78DFCFFF7D3FD01E00C
:101E5800FFF7D2FC00BF08B010BD00BFB0090020DA
:101E6800B4090020C209002000B587B000230193FF
:101E780000238DF81730194B1B680493184B1B6807
:101E880003936B461846FFF733FE03468DF80B3075
:101E98009DF80B30002B08D0009B01AA0499184626
:101EA800FFF762FE01238DF81730019B1846FFF7F4
:101EB800A5FE0346002B02D001238DF817309DF8AC
:101EC8001730002B02D00398FFF776FF054B00224E
:101ED8001A7000BF07B05DF804FB00BFB40900200A
:101EE800B0090020C309002082B003468DF80730EE
:101EF800034A9DF80730537000BF02B0704700BF17
:101F0800A408002084B00190144B5B7801338DF84D
:101F18000F30124B9B789DF80F209A4202D1002374
:101F28008DF80F300D4B1B789DF80F209A4201D188
:101F380000230FE0019B9DF80F201A70074B5B7878
:101F48001A4613465B001344DB00044A1344043367
:101F58000293029B184604B0704700BFA4080020F3
:101F680000B589B003900291019200930023079372
:101F7800002000F007F90DF117031846FFF7C2FF1C
:101F88000690069B002B02D10423079318E0069BBA
:101F980001221A70069B039A5A60FFF755FC024605
:101FA800069B9A60069B029ADA60069B019A1A6160
:101FB800069B009A5A619DF817301846FFF794FF60
:101FC800002000F0E8F8079B002B01D1FFF718FD6F
:101FD800079B184609B05DF804FB000008B50E4BD6
:101FE8000022C3F840210C4B0022C3F844210A4BBD
:101FF8000022C3F84821084B0022C3F84C21064BA5
:102008000022C3F80021044B0022C3F80421FFF783
:102018000BFD00BF08BD00BF0010014008B5FFF769
:1020280023FF00BF08BD000008B5FFF7E5FB134B11
:1020380000221A70114B00225A70104B0B229A7012
:102048000F4B00221A600F4B00221A700E4B002211
:102058001A701420FFF746FB06211420FFF75AFBDD
:102068001420FFF7F9FA0020FFF794FBFFF7ECFBC9
:102078000246064B1A600023184608BDA408002033
:10208800B0090020C0090020C1090020B4090020BF
:1020980086B003900B4601928DF80B30134B9B785A
:1020A800002B01D108231EE0019B002B01D107233F
:1020B80019E0039B002B01D1072314E0039B1B6845
:1020C8001B7C002B01D008230DE0039B1B680593A4
:1020D800059B00221A74059B9DF80B205A74059BDA
:1020E800019A5A610023184606B07047A4080020D8
:1020F80000B587B0039002910192039B0593144B9E
:102108009B78002B01D108231EE0039B002B01D1F3
:10211800082319E0029B042B01D8072314E0059B30
:102128005B69002B01D108230EE0059B5B7C012B2A
:1021380001D1029B00E000230493019B049A0299B9
:102148000598FFF70DFF0346184607B05DF804FB36
:10215800A408002072B6034B1B680133014A1360C0
:1021680000BF7047C4090020054B1B68013B044AA7
:102178001360034B1B68002B00D162B600BF704789
:10218800C409002000B583B00190FFF7E3FF00BF4A
:1021980003B05DF804FB00B583B003468DF8073043
:1021A800FFF7E2FF00BF03B05DF804FB10B487B08F
:1021B80001900091019B009A53E8004F104643E8B4
:1021C800000191F0000FF7D1059404900391059B4D
:1021D800184607B05DF8044B704710B487B00190FB
:1021E8000091019B009A53E8004F44EA020043E83B
:1021F800000191F0000FF6D1059404900391049B1F
:10220800184607B05DF8044B704710B487B00190CA
:102218000091019B009A53E8004F04EA020043E84A
:10222800000191F0000FF6D1059404900391059BED
:10223800184607B05DF8044B704710B487B001909A
:102248000091019B009A53E8004F04EB020043E819
:10225800000191F0000FF6D1059404900391049BBE
:10226800184607B05DF8044B704710B487B001906A
:102278000091019B009A53E8004FA4EB020043E849
:10228800000191F0000FF6D1059404900391049B8E
:10229800184607B05DF8044B704700B583B001904D
:1022A80001210198FFF799FF0346184603B05DF82E
:1022B80004FB00B583B0019000210198FFF7A5FF4A
:1022C8000346184603B05DF804FB82B001900B4644
:1022D8008DF80330019BDA689DF803300199098A6B
:1022E80001FB03F31344184602B0704782B0019013
:1022F8000091009B019AD2689B1A019A128AB3FB3B
:10230800F2F3DBB2184602B0704784B00190019B2B
:10231800002B01D10E2321E0019B9B681A46019BEB
:102328005B68D31A8DF80F30019B1B68019A5268BD
:102338001A6007E0019B1A681368591C11609DF820
:102348000F201A709DF80F305A1E8DF80F20002BA1
:10235800F0D1019B1B6800221A710023184604B0B3
:10236800704700B585B00190002303930020FFF764
:1023780009FF019B1B681A68019B5B689A4220D978
:10238800019B1B681A68013A1A601B681B7819467A
:102398000198FFF79AFF0390019B9B681A46019BDF
:1023A8001B681B68D31A8DF80B30019B1B681B79BF
:1023B8009DF80B209A4204D9019B1B689DF80B20BD
:1023C8001A710020FFF7E7FE039B184605B05DF879
:1023D80004FB10B584B001900091009B039300208A
:1023E800FFF7D0FE019B1B681C68621C1A600399EA
:1023F8000198FFF77BFF034623700020FFF7CBFE11
:1024080000BF04B010BD00B583B00190019B9B686C
:10241800002B0CD0019B5B69019A1069019A116825
:10242800019A92689847019B00229A6000E000BFD9
:1024380003B05DF804FB0EB400B584B00190059BB1
:10244800002B0AD00023039306AB039303AB1A4671
:102458000599019800F0ACF900E000BF04B05DF800
:1024680004EB03B0704700B583B001900B468DF8BC
:102478000330019B1A68019B9B68581C019988606E
:1024880013449DF803201A70019B9A68019B5B68AE
:102498009A4202D30198FFF7B6FF00BF03B05DF878
:1024A80004FB00B587B003900291019200930023CA
:1024B8000593009B03F00103002B24D00BE0029B43
:1024C80001330293059B013305939DF81330194698
:1024D8000398FFF7C8FF029B1B788DF813309DF80F
:1024E8001330002BEBD106E0019B013B0193202127
:1024F8000398FFF7B8FF019A059B9A422ED9019BD2
:10250800002BF1D12AE0029B002B0BD0029810F08F
:1025180063FB059006E0019B013B01932021039892
:10252800FFF7A1FF019A059B9A420FD9019B002B47
:10253800F1D10BE0029B01330293059B0133059314
:102548009DF8133019460398FFF78DFF029B1B78FF
:102558008DF813309DF81330002BEBD100BF07B076
:102568005DF804FB00B589B00390029101920093D5
:10257800029B07930123069307E0079A019BB2FB8E
:10258800F3F30793069B01330693079A019B9A423C
:10259800F3D2009A069B9A4201D9009B06930B9BA3
:1025A80003F00103002B22D10A9B002B1FD00B9BA9
:1025B80003F00203002B06D0009B002B03D130232D
:1025C8008DF8173002E020238DF8173008E00A9BB9
:1025D800013B0A939DF8173019460398FFF743FF0C
:1025E8000A9B002B03D0069A0A9B9A42EFD3012339
:1025F8000793009B012B03D9009B013B009309E043
:10260800029A079BB2FBF3F30493049A019B9A4244
:1026180000D205E0079B019A02FB03F30793E8E762
:10262800029A079BB2FBF3F30493049B079A02FBFD
:1026380003F3029AD31A0293154A049B13441B7896
:1026480019460398FFF70FFF079A019BB2FBF3F3B4
:102658000793079B002BE3D10B9B03F00103002B8F
:1026680011D00A9B002B0ED006E00A9B013B0A936F
:1026780020210398FFF7F7FE0A9B002B03D0069A48
:102688000A9B9A42F1D300BF09B05DF804FB00BF72
:10269800F834010000B589B00590049103920293C3
:1026A800049B002BB8BF5B4206930123079307E006
:1026B800039B069A92FBF3F30693079B0133079358
:1026C800039B069A9A42F3DA029A079B9A4201D927
:1026D800029B07930A9B002B0AD0049B002B04DB68
:1026E8000B9B03F00403002B02D00A9B013B0A93C7
:1026F8000B9B03F00203002B02D0029B002B16D089
:102708000B9B03F00103002B11D10A9B002B0ED069
:1027180006E00A9B013B0A9320210598FFF7A3FED8
:102728000A9B002B03D0079A0A9B9A42F1D3049B79
:10273800002B07DA049B5B4204932D210598FFF7D1
:1027480092FE08E00B9B03F00403002B03D02B211F
:102758000598FFF788FE0B9B03F00203002B19D0A6
:102768000B9B03F00103002B14D1029B002B11D10A
:102778000A9B002B0ED006E00A9B013B0A933021EE
:102788000598FFF770FE0A9B002B03D0079A0A9B57
:102798009A42F1D304990B9B01930A9B0093029BE5
:1027A800039A0598FFF7DEFE00BF09B05DF804FB49
:1027B80000B58FB0059004910392049B002B00F0A4
:1027C800E981049B1B788DF83730049B013304930F
:1027D8009DF83730002B00F0D4819DF83730252B39
:1027E80040F0C38100230A9301230C93049B1B78B8
:1027F8008DF837309DF837302D2B04D0302B0AD088
:102808002B2B10D017E00A9B43F001030A93049B7B
:102818000133049312E00A9B43F002030A93049BDA
:10282800013304930AE00A9B43F004030A93049BD0
:102838000133049302E000230C9300BF0C9B002B90
:10284800D4D1002309939DF837302A2B0CD1039B50
:102858001B68191D039A11601B68099A1344099390
:10286800049B013304931AE0049B1B788DF83730DE
:102878009DF837302F2B12D99DF83730392B0ED8C9
:10288800049B01330493099A13469B0013445B008D
:102898001A469DF837301344303B0993D3E7002399
:1028A8000B93049B1B788DF837309DF837302E2B0F
:1028B8001DD1049B01330493049B1B788DF837309A
:1028C8009DF837302F2B12D99DF83730392B0ED879
:1028D800049B013304930B9A13469B0013445B003B
:1028E8001A469DF837301344303B0B93E4E7049BBA
:1028F8001B788DF837309DF837306C2B03D09DF856
:102908003730682B07D1049B01330493049B1B7851
:102918008DF83730EFE79DF83730253B532B00F221
:102928001F8101A252F823F05F2B0000692B0000E1
:10293800692B0000692B0000692B0000692B00003F
:10294800692B0000692B0000692B0000692B00002F
:10295800692B0000692B0000692B0000692B00001F
:10296800692B0000692B0000692B0000692B00000F
:10297800692B0000692B0000692B0000692B0000FF
:10298800692B0000692B0000692B0000692B0000EF
:10299800692B0000692B0000692B0000692B0000DF
:1029A800692B0000692B0000692B0000692B0000CF
:1029B800692B0000692B0000692B0000692B0000BF
:1029C800692B0000692B0000692B0000692B0000AF
:1029D800692B0000692B0000692B0000692B00009F
:1029E800692B0000692B0000692B0000692B00008F
:1029F800692B0000EB2A0000692B0000692B0000FE
:102A0800692B0000692B0000692B0000692B00006E
:102A1800692B0000692B0000692B0000692B00005E
:102A2800812A0000A32A0000692B0000692B0000FE
:102A3800692B0000692B0000A32A0000692B000005
:102A4800692B0000692B0000692B0000692B00002E
:102A5800692B00002B2B0000692B0000692B00005C
:102A68000F2B0000692B0000C72A0000692B00000B
:102A7800692B0000EB2A0000039B1B68191D039AB1
:102A880011601B680C930C9B8DF81F309DF81F304C
:102A980019460598FFF7E7FC63E0039B1B68191DBF
:102AA800039A11601B680C930A9B0193099B00937E
:102AB8000B9B0A220C990598FFF7ECFD51E0039B4C
:102AC8001B68191D039A11601B680C930C990A9BCB
:102AD8000193099B00930B9B0A220598FFF742FD7F
:102AE8003FE0039B1B68191D039A11601B680C9338
:102AF8000C990A9B0193099B00930B9B1022059844
:102B0800FFF730FD2DE0039B1B68191D039A116028
:102B18001B6808930A9B099A08990598FFF7C1FC56
:102B28001FE0039B1B68191D039A11601B680C9317
:102B380030210598FFF797FC78210598FFF793FC5B
:102B48000C99002301930823009308231022059869
:102B5800FFF708FD05E025210598FFF784FC00E054
:102B680000BF049B0133049305E09DF837301946F4
:102B78000598FFF778FC049B1B78002B7FF421AEA7
:102B880000E000BF059B1B7B002B04D00598FFF7D6
:102B98003AFC00E000BF0FB05DF804FB00B583B05D
:102BA80001900198FFF7B1FB0346184603B05DF8A2
:102BB80004FB00B58BB001900091019B1B8A043B7C
:102BC8000793009A079B1344DA1C079BB2FBF3F3A5
:102BD8008DF81B300198FFF7C4FB0590059B002B6F
:102BE80001D1002338E0059B00221A71059B0122C0
:102BF8005A71079B9AB2059BDA80059B09939DF849
:102C08001B30013B0493099B019A1A600023089327
:102C18001DE00198FFF7A5FB0390039B002B0ED046
:102C2800059B5B790133DAB2059B5A71099B039ABC
:102C38001A60039B019A1A60039B099304E00598A4
:102C480000F00EF8002307E0089B01330893089A68
:102C5800049B9A42DDD3059B18460BB05DF804FB34
:102C680000B58BB00190019B0793079B5B798DF8AA
:102C78001B30019B08939DF81B30013B05930023F3
:102C8800099305E0089B1B680893099B0133099386
:102C9800099A059B9A42F5D3089B1B680493019BEC
:102CA8000893002309930BE0089B1B68039308997A
:102CB8000498FFF78EFB039B0893099B0133099344
:102CC8009DF81B30099A9A42EED300BF0BB05DF80D
:102CD80004FB00B585B00190019B0393039B04336B
:102CE80001211846FFF7A9FA00BF05B05DF804FBFB
:102CF80000B587B00190019B0593059B0433012122
:102D08001846FFF7B2FA0346039303AB0493049BF8
:102D18001B78002B02D10198FFF7A2FF00BF07B074
:102D28005DF804FB00B591B0039002910192009305
:102D3800039B0993039B0F93099BDB881A46099B06
:102D48005B7903FB02F3043B0893099BDB88079339
:102D5800009B1A1D079BB2FBF3F30E93009B0433F1
:102D6800079AB3FBF2F2079901FB02F29B1A0D9343
:102D7800019B1A68009B1344089A9A4203D2089A46
:102D8800009BD31A01E0019B1B680C93019B0C9AD2
:102D98001A6005E00F9B1B680F930E9B013B0E9377
:102DA8000E9B002BF6D100230B93079A0D9BD31A89
:102DB8000A930A9A0C9B934228BF13460A932AE067
:102DC800029A0B9B134406930F9A0D9B13440433EA
:102DD80005939DF84830002B05D00A9A0599069866
:102DE8000FF055FE04E00A9A069905980FF04FFE79
:102DF80000230D930F9B1B680F930C9A0A9BD31A01
:102E08000C930B9A0A9B13440B93079A0C9B9342BF
:102E180028BF13460A930C9B002BD1D100BF11B0D9
:102E28005DF804FB00B589B0059004910392029304
:102E3800039B079307AA00230093029B0499059814
:102E4800FFF770FF00BF09B05DF804FB00B589B05B
:102E58000590049103920293039B079307AA012309
:102E68000093029B04990598FFF75CFF00BF09B027
:102E78005DF804FB82B00190019B9B6800229A6078
:102E8800019B9B6800221A61019B9B6800225A6182
:102E9800019B9B680022DA60019B9B6800225A60B4
:102EA800019B9B6800221A6000BF02B070470000B7
:102EB80000B589B001900091009B0793019B1B7896
:102EC8008DF80C30019B5B680493019B1B7A8DF88D
:102ED8001430019BDB680693074A079B52F823309E
:102EE8000649079A51F8221003AA1046984700BFCE
:102EF80009B05DF804FB00BFC8090020D009002014
:102F080000B589B001900091009B0793019B1B7845
:102F18008DF80C30019B5B680493019B9B68DBB2C6
:102F28008DF81430019BDB680693074A079B52F81B
:102F380023300649079A51F8221003AA10469847E9
:102F480000BF09B05DF804FBC8090020D0090020C3
:102F580030B58FB0039002910192039B1B780C93BC
:102F680026490C9B019A41F82320029B1A6924499F
:102F78000C9B41F82320029B5B7F1946214A0C9B3E
:102F880013440A461A70029B04AC1D460FCD0FC4A9
:102F980095E80F0084E80F000C9B089300230D931D
:102FA800039B1B781A46174B9B5C002B0DD0039B89
:102FB800181D019B002B01D0134A00E0002204AB2E
:102FC800194602F0C1F90D9014E0039B1B781A46CC
:102FD8000C4B9B5C002B0DD1039B03F10C00019B58
:102FE800002B01D0094A00E0002204AB194601F089
:102FF80095FB0D900D9B18460FB030BDC8090020F9
:10300800D0090020D8090020B92E0000092F00009F
:1030180000B583B00346ADF80630BDF80630184653
:1030280000F026F803461B68012B0CBF0123002380
:10303800DBB2184603B05DF804FB00B585B0034663
:10304800ADF80630BDF80630184600F011F8034612
:103058001A4600231360BDF80630184600F008F839
:1030680003461B680393039B00BF05B05DF804FB90
:1030780082B00346ADF80630BDF8063003F1804350
:1030880003F5C043184602B07047000082B00190B3
:10309800034BD3F80423019B1340184602B0704732
:1030A8000060004082B00190054A019B03F5A273BD
:1030B80052F823301B0A03F03F03184602B070474A
:1030C8000060004082B00190064A019B03F5A2739C
:1030D80052F823301B0C03F00303DBB2184602B08E
:1030E800704700BF0060004082B00190019B1B68E0
:1030F8001F2B02D84FF0A04306E0019B1B6803F08A
:103108001F02019B1A60024B184602B0704700BFAD
:103118000003005000B585B001900B468DF80330D0
:1031280001AB1846FFF7E0FF0390019A039B02F5F5
:10313800E07253F82230019A23F44031039B02F5E0
:10314800E07243F82210019A039B02F5E07253F8EB
:1031580022309DF8032012041146019A1943039B5B
:1031680002F5E07243F8221000BF05B05DF804FBD9
:1031780000B585B0019001AB1846FFF7B5FF039085
:10318800019A039B02F5E07253F822301B0C03F0FE
:103198000303DBB2184605B05DF804FB82B001906A
:1031A800019BD3F81035184602B0704700B589B0B6
:1031B800039002910192124A05AB92E8030083E85A
:1031C8000300039B079311E0079B9B0008AA134485
:1031D80053F80C3C1846FFF7E1FF0246019B1A60C2
:1031E800019B04330193079B01330793039A029BC6
:1031F8001344079A9A42E7D300BF09B05DF804FB6D
:103208000835010084B001900091009B0393019B55
:10321800DB080293019B03F0070301930122019B42
:1032280002FA03F30399029A0A44127813401846E3
:1032380004B0704784B001900091009B0393019BF8
:10324800DB080293019B03F007030193039A029B97
:1032580013441B785AB20121019B01FA03F35BB2B4
:10326800134359B2039A029B1344CAB21A7000BF9F
:1032780004B0704782B00190044A019B1344303374
:1032880093F90030184602B0704700BFDC090020EF
:1032980082B00190034A019B52F82330184602B0CD
:1032A800704700BFDC09002000B599B000231493D3
:1032B80006AB00221A605A604FF48073ADF84A30AA
:1032C800012316930023139321E0BDF84A301846D2
:1032D800FFF79EFE0346002B0ED01698FFF7D6FE8A
:1032E8000346002B08D0BDF84A301846FFF7A5FE64
:1032F800149A169B13431493169B5B001693BDF800
:103308004A300433ADF84A30139B01331393139BAF
:10331800072BDAD94FF4BE70FFF77AFE0346002B6D
:103328000DD04FF4BE70FFF788FE149B43F00043A6
:10333800149306AB1A4602210020FFF737FF149BAF
:10334800DBB2002B29D0012316930023139321E02D
:10335800169A149B1340002B16D01398FFF7A2FE61
:1033680011901398FFF7AEFE03468DF8433013987B
:10337800FFF78EFF0F900F9B002B05D09DF8432081
:103388000F9B114611989847169B5B001693139B49
:1033980001331393139B072BDAD9149B002B80F26C
:1033A800F08000238DF85F3004AB00221A605A6069
:1033B800002315930AE0159B9B0018AA13444FF0AD
:1033C800FF3243F8582C159B01331593159B012B9D
:1033D800F1D900238DF85F300023139378E06B4A0E
:1033E800139B1344603393F900308DF83B309DF8FC
:1033F8003B3023F0C0030D93644A139B134460339E
:1034080093F90030B3F1FF3F5FD002AB19460D9836
:10341800FFF7F8FE0346002B57D09DF83B309B0979
:103428008DF833300D98FFF725FF03461846FFF750
:103438002FFF0B900B9B002B03D19DF83330032BF0
:1034480043D19DF83330032B04D104AB19460D98B2
:10345800FFF7F0FE0D98FFF78BFE03468DF82B3033
:1034680006AB19460D98FFF7CDFE0990099B002B76
:1034780003D09DF82B30022B06D0099B002B24D1BA
:103488009DF82B30032B20D19DF83330032B13D11B
:103498009DF82B30022B01D1032300E002238DF885
:1034A80023309DF8233019460D98FFF733FE9DF819
:1034B8005F3001338DF85F300B9B002B05D09DF8F2
:1034C80033200B9B11460D989847139B0133139398
:1034D800139B032B83D99DF85F30002B4CD001231D
:1034E8008DF85E306B461A4602210020FFF75EFE1B
:1034F8000023159314E0159B9B0018AA134453F856
:10350800602C159B9B0018A90B4453F8483C9A4221
:1035180003D000238DF85E3005E0159B0133159329
:10352800159B012BE7D99DF85E30002B03D00023B3
:103538008DF85F3020E0002315931AE0159B9B005F
:1035480018AA134453F8602C159B9B0018A90B4428
:1035580043F8482C159B9B0018AA134453F8502C89
:10356800159B9B0018A90B4443F8582C159B013355
:103578001593159B012BE1D99DF85F30002B7FF443
:1035880028AF00BF19B05DF804FB00BFDC090020BC
:1035980008B5024B1B68984700BF08BD480A0020C1
:1035A80082B00190019B044A934201D1034B00E091
:1035B8000023184602B0704700200040480A002047
:1035C80000B587B0019000910198FFF7E9FF0390DB
:1035D800039B002B1ED000238DF817300020FEF728
:1035E800D1FD039B1B79002B03D001238DF81730E5
:1035F80005E0039B009A1A60039B01221A710020C0
:10360800FEF7C9FD9DF81730002B03D01123049352
:10361800049B02E000230493049B184607B05DF85E
:1036280004FB00B585B001900198FFF7B9FF03903E
:10363800039B002B05D0039B00221A60039B0022EA
:103648001A7100BF05B05DF804FB000082B00346A4
:103658008DF807309DF8073003F01F0205499DF9E2
:1036680007305B09012000FA02F241F8232000BF6D
:1036780002B0704700E100E082B003468DF80730E1
:103688009DF8073003F01F0206499DF907305B09D2
:10369800012000FA02F2603341F8232000BF02B093
:1036A800704700BF00E100E082B0034600918DF84A
:1036B80007309DF90730002B0CDA009BDAB20C4971
:1036C8009DF8073003F00F03043B5201D2B20B44BC
:1036D8001A7609E0009BDAB206499DF907305201D3
:1036E800D2B20B4483F8002300BF02B0704700BF7A
:1036F80000ED00E000E100E082B00190019B03F0E2
:103708006043B3F1005F0CBF01230023DBB218460E
:1037180002B0704782B00190019B1B0B5BB2184648
:1037280002B0704700B583B003460A468DF80730EB
:1037380013468DF806309DF806209DF9073011468E
:103748001846FFF7B1FF00BF03B05DF804FB00B5F2
:1037580083B003468DF807309DF907301846FFF708
:103768008BFF9DF907301846FFF770FF00BF03B0C5
:103778005DF804FB82B001900B468DF803309DF88C
:103788000330019A134401221A6000BF02B0704747
:1037980084B001900B46ADF80230BDF80230019AB2
:1037A800134400221A60BDF80230019A13441B68C2
:1037B8000393039B00BF04B0704782B001900B468F
:1037C800ADF80230BDF80230019A13441B68002B93
:1037D80014BF01230023DBB2184602B0704782B041
:1037E80001900091019B009AC3F8042300BF02B026
:1037F800704782B001900091019B009AC3F808239A
:1038080000BF02B0704782B00190019B0722C3F845
:10381800002500BF02B0704784B003900291019266
:103828000093039B029AC3F80825039B019AC3F8E7
:103838000C25039B009AC3F8102500BF04B07047FD
:1038480084B003900291009313468DF80730039BD0
:10385800029AC3F814259DF80720039BC3F868252E
:10386800039B009AC3F8642500BF04B0704782B078
:1038780001900091019B009AC3F86C2500BF02B02B
:10388800704782B001900091019B009AC3F870259F
:1038980000BF02B0704782B001900091019B009A6E
:1038A800C3F8602500BF02B0704782B00190009154
:1038B800009A019BC3F8242500BF02B0704784B06A
:1038C800039002910192029A039BC3F84425039B3B
:1038D800019AC3F8482500BF04B0704784B003902C
:1038E80002910192029A039BC3F83425039B019A23
:1038F800C3F8382500BF04B0704784B001900B4668
:103908008DF8033013468DF802309DF80230002BF5
:1039180014BF01230023DBB203939DF80330022B6D
:1039280009D0032B0CD0012B00D00EE0039B43F0F1
:103938000203039309E0039B43F00403039304E0A9
:10394800039B43F00603039300BF019B039AC3F84C
:10395800542500BF04B0704782B001900B468DF823
:1039680003309DF80320019BC3F8C02500BF02B0B7
:10397800704782B00190019B0122C3F8502500BF17
:1039880002B0704782B00190019B0022C3F8502515
:1039980000BF02B0704782B00190019B0122C3F8BA
:1039A800402500BF02B0704782B00190019B002201
:1039B800C3F8402500BF02B07047000082B00190F4
:1039C800019B1B681F2B02D84FF0A04306E0019B08
:1039D8001B6803F01F02019B1A60024B184602B0D5
:1039E800704700BF0003005000B585B0019008463D
:1039F80011461A4603468DF803300B468DF80230FF
:103A080013468DF8013001AB1846FFF7D7FF039036
:103A18009DF803209DF802305B001A439DF80130A1
:103A28009B001A439DF818301B0242EA03019DF8D7
:103A38001C301B04019A1943039B02F5E07243F8FA
:103A4800221000BF05B05DF804FB00B585B00390F7
:103A580000230193002300930023012201210398EE
:103A6800FFF7C2FF00BF05B05DF804FB00B585B0E5
:103A780003900B468DF80B309DF80B200023019323
:103A8800002300931346002200210398FFF7ACFFA0
:103A980000BF05B05DF804FB00B585B0019001AB2F
:103AA8001846FFF78BFF0390019B012202FA03F3EC
:103AB8001946039800F018F800BF05B05DF804FB3C
:103AC80000B585B0019001AB1846FFF777FF03906A
:103AD800019B012202FA03F31946039800F00EF83D
:103AE80000BF05B05DF804FB82B001900091019B16
:103AF800009AC3F8082500BF02B0704782B0019051
:103B08000091019B009AC3F80C2500BF02B07047D2
:103B180000B58DB00590049103920293059B1B7923
:103B28001A461346DB0013449B008E4A134408933D
:103B3800089B1B7F002B03D008230793079B0DE1ED
:103B4800059B1B79002B15D0049B9B7BFF2B0DD16C
:103B5800049B9B68B3F1206F08D0049B9B68B3F16A
:103B6800A05F03D0049B1B7C002B03D00623079384
:103B7800079BF3E0059B1B680993059B1A68059B47
:103B88001B791946784B53F8213019461046FFF730
:103B980017FD0346002B03D011230793079BDDE095
:103BA800089B039A1A60089B029A5A60049B1B7B25
:103BB800012B05D8049B1B781846FFF781FF04E00A
:103BC800049B1B781846FFF767FF049B1B78184671
:103BD8000023019300230093002300220121FFF713
:103BE80003FF049B5B78FF2B09D0049B5B780B9346
:103BF8000B98FFF765FF0B98FFF727FF02E04FF0E0
:103C0800FF330B93049B9B78FF2B07D0049B9B7877
:103C18000A9301210A98FFF729FF02E04FF0FF33CA
:103C28000A93049B9A78089B83F82120049BDA78EE
:103C3800089B83F82020049BDB78FF2B2AD0049B69
:103C48001B79002B05D0049BDB781846FFF738FF5B
:103C580004E0049BDB781846FFF71EFF049BDB7823
:103C68001846FFF7F2FE049B1B7C002B0ED0049B2A
:103C78001A7C089B9A77049BDB781946049B1B796E
:103C88001A46049B5B7C0998FFF7DAFD049B1A79B6
:103C9800089BDA77049B9B7BFF2B0FD0049B9B7BB5
:103CA8001846FFF7F9FE049B9B7B1846FFF7CDFEED
:103CB800049B9B7B19460998FFF7D9FD049BDB7B86
:103CC80019460998FFF7E7FD049B1B7819460A9BDC
:103CD8000B9A0998FFF7A0FD049B9B681946099861
:103CE800FFF7E3FD049B197B049B5B7B1A4609984D
:103CF800FFF703FE049B9B7919460998FFF72CFEF2
:103D0800089B1B68002B03D040210998FFF767FD2B
:103D18000998FFF778FD089B1B68002B15D0059BB9
:103D28001B681846FFF7F6FC03461A46049B5B79A6
:103D380019461046FFF7F6FC059B1B681846FFF767
:103D4800E9FC03461846FFF702FD089B00225A7754
:103D5800089B01221A7700230793079B18460DB08A
:103D68005DF804FB500A00202435010000B585B039
:103D78000390029101928DF80330039B1B689DF814
:103D8800032011461846FFF77CFD0022029903988C
:103D980000F000F90346184605B05DF804FB00B5CD
:103DA80083B00190019B93F82030FF2B17D0019B23
:103DB8009B7F83F00103DBB2002B10D0019BDB7FDC
:103DC800002B06D0019B93F820301846FFF778FEA9
:103DD80005E0019B93F820301846FFF75DFE019B34
:103DE80000225A77019B00221A72019B1B68019AD4
:103DF80002F10800019A52681146984700BF03B0C3
:103E08005DF804FB00B583B001900B468DF80330D4
:103E18009DF8033083F00103DBB2002B04D040216E
:103E28000198FFF7E6FC03E040210198FFF7D7FC73
:103E380000BF03B05DF804FB00B583B001900091AA
:103E4800009B03F00103002B03D00198FFF791FDBD
:103E580002E00198FFF796FD009B03F00203002B98
:103E680003D00198FFF797FD02E00198FFF79CFD4A
:103E780000BF03B05DF804FB00B587B00390029162
:103E880001920093019B1B68002B0AD0019B1B68C1
:103E98001846FFF731FC034683F00103DBB2002B21
:103EA8000ED1019B9B68002B11D0019B9B68184683
:103EB800FFF722FC034683F00103DBB2002B06D098
:103EC800029B00225A7710230593059B5EE0019B15
:103ED8001968019B5B681A460398FFF7F0FC019B81
:103EE8009968019BDB681A460398FFF7F7FC4FF4C3
:103EF8008C710398FFF74CFC00990398FFF79CFF1F
:103F0800009B03F00803002B03D110210398FFF74F
:103F180031FC029B1B68002B29D100BF4FF48C7128
:103F28000398FFF74AFC034683F00103DBB2002B3A
:103F3800F4D1029B93F82030FF2B24D0029B9B7F67
:103F480083F00103DBB2002B1DD0029BDB7F002B2B
:103F580006D0029B93F820301846FFF7B1FD12E017
:103F6800029B93F820301846FFF796FD0BE0009B64
:103F780003F00403002B0CBF01230023DBB2194616
:103F88000398FFF73FFF00230593059B184607B0EA
:103F98005DF804FB10B586B0039002910192039B73
:103FA8001B791A461346DB0013449B00244A13442A
:103FB800049300230593049B5B7FDBB2002B03D0A3
:103FC80011230593059B38E0049B1B68002B07D041
:103FD800019B03F01403002B02D1049B01225A77A2
:103FE800049B029A03F10C0413460FCB84E80F00DC
:103FF800049B93F82030FF2B17D0049B9B7F83F002
:104008000103DBB2002B10D0049BDB7F002B06D012
:10401800049B93F820301846FFF73EFD05E0049B0B
:1040280093F820301846FFF74BFD039B1868019B57
:10403800029A0499FFF720FF0346184606B010BD00
:10404800500A002000B583B0019000914FF48C71A4
:104058000198FFF7B2FB0346002B07D04FF48C7191
:104068000198FFF795FB0098FFF799FE00BF03B092
:104078005DF804FB08B503490348FFF7E3FF00BFF9
:1040880008BD00BF500A002000F0024082B003467D
:104098008DF807309DF8073003F01F0205499DF998
:1040A80007305B09012000FA02F241F8232000BF23
:1040B80002B0704700E100E082B003468DF8073097
:1040C8009DF8073003F01F0206499DF907305B0988
:1040D800012000FA02F2203341F8232000BF02B089
:1040E800704700BF00E100E082B003468DF807305A
:1040F8009DF8073003F01F0206499DF907305B0958
:10410800012000FA02F2603341F8232000BF02B018
:10411800704700BF00E100E082B0034600918DF8CF
:1041280007309DF90730002B0CDA009BDAB20C49F6
:104138009DF8073003F00F03043B5201D2B20B4441
:104148001A7609E0009BDAB206499DF90730520158
:10415800D2B20B4483F8002300BF02B0704700BFFF
:1041680000ED00E000E100E082B00190019B1B0B34
:104178005BB2184602B0704700B583B003460A46E2
:104188008DF8073013468DF806309DF806209DF906
:10419800073011461846FFF7BFFF00BF03B05DF8B0
:1041A80004FB00B583B003468DF807309DF907304E
:1041B8001846FFF799FF9DF907301846FFF766FF85
:1041C80000BF03B05DF804FB00B583B003468DF86B
:1041D80007309DF907301846FFF76EFF00BF03B0A0
:1041E8005DF804FB84B001900B46ADF80230BDF8D1
:1041F8000230019A134400221A60BDF80230019A75
:1042080013441B680393039B00BF04B0704782B03C
:1042180001900B46ADF80230BDF80230019A134404
:104228001B68002B14BF01230023DBB2184602B021
:10423800704782B001900091019B009AC3F8042353
:1042480000BF02B0704782B001900091019BD3F883
:104258000423009B1340002B14BF01230023DBB26F
:10426800184602B0704782B001900091019B009AF5
:10427800C3F8082300BF02B0704784B00190019BC7
:10428800D3F880340393019B039AC3F88024039BDB
:10429800184604B0704782B00190019B0422C3F80D
:1042A800002500BF02B0704782B00190019B002238
:1042B800C3F8002500BF02B0704784B00390029194
:1042C8000192039B019AC3F81425039B029AC3F831
:1042D8000C2500BF04B0704700B583B001904FF0C3
:1042E800FF324FF0FF310198FFF7E7FF00BF03B03F
:1042F8005DF804FB82B00190019BD3F80C35184699
:1043080002B0704782B00190019BD3F8143518466B
:1043180002B0704782B00190019BD3F80835184667
:1043280002B0704782B00190019BD3F8103518464F
:1043380002B0704784B0039002910192039B029AE5
:10434800C3F80825039B019AC3F8102500BF04B0E1
:10435800704700B583B001904FF0FF324FF0FF3146
:104368000198FFF7E7FF00BF03B05DF804FB82B0D8
:104378000190019BD3F81835DBB2184602B070479C
:1043880082B001900B468DF803309DF80320019B05
:10439800C3F81C2500BF02B0704782B001900B46DD
:1043A8008DF803309DF80330019A134401221A60F6
:1043B80000BF02B0704782B001900B468DF8033001
:1043C80013468DF802309DF803209DF80230134300
:1043D800DBB21A46019BC3F86C2500BF02B07047D8
:1043E80082B001900091019B009AC3F8242500BF78
:1043F80002B0704782B00190019B1B681F2B02D846
:104408004FF0A04306E0019B1B6803F01F02019BCD
:104418001A60024B184602B0704700BF00030050F4
:1044280000B585B00190084611461A4603468DF836
:1044380003300B468DF8023013468DF8013001AB7E
:104448001846FFF7D7FF03909DF803209DF8023028
:104458005B001A439DF801309B001A439DF8183001
:104468001B0242EA03019DF81C301B04019A194300
:10447800039B02F5E07243F8221000BF05B05DF817
:1044880004FB00B585B0039000230193002300933B
:104498000023012201210398FFF7C2FF00BF05B0E6
:1044A8005DF804FB00B585B003900B468DF80B3022
:1044B8009DF80B200023019300230093134600224C
:1044C80000210398FFF7ACFF00BF05B05DF804FBBF
:1044D80000B585B0039000230193002300930023C7
:1044E800012200210398FFF79BFF00BF05B05DF88C
:1044F80004FB00B585B0019001AB1846FFF77AFFC1
:104508000390019B012202FA03F31946039800F075
:1045180004F800BF05B05DF804FB82B0019000917B
:10452800019B009AC3F8082500BF02B0704700B588
:1045380083B001900091009B1B68B3F1FF3F09D045
:10454800009B1B681846FFF7D4FF009B1B681846A2
:10455800FFF797FF009B5B68B3F1FF3F05D0009B17
:104568005B6800211846FFF79DFF019B1A68009BB6
:104578009B6919461046FFF733FF019B1868009B9B
:10458800597D009B1B7D1A46FFF715FF019B186894
:10459800009B1968009B5B681A46FFF78EFE009B1C
:1045A8001B7D012B22D1009B9B68B3F1FF3F05D0F7
:1045B800009B9B6800211846FFF774FF009BDB688F
:1045C800B3F1FF3F09D0009BDB681846FFF791FF66
:1045D800009BDB681846FFF754FF019B1868009B97
:1045E800D968009B9B681A46FFF7A4FE00BF03B07A
:1045F8005DF804FB00B583B001900B468DF80330DD
:10460800019B1B684FF48E711846FFF7EBFD019B69
:104618001B684FF4A2711846FFF7E4FD019B1B6865
:104628000E491846FFF705FE019B1B681846FFF761
:104638009BFD03461A469DF8033019461046FFF7BE
:104648009BFD019B1B681846FFF78EFD0346184625
:10465800FFF7A7FD00BF03B05DF804FB8000020070
:1046680000B583B00190019B1B6808491846FFF705
:10467800FAFD019B1B681846FFF776FD03461846AE
:10468800FFF7A2FD00BF03B05DF804FB840202003F
:1046980000B587B00190019B1B681846FFF72AFEFA
:1046A8000590019B1B681846FFF72CFE0490019BA0
:1046B8001B681846FFF72EFE0390019B1B681846DF
:1046C800FFF730FE0290019B1B681846FFF704FEB7
:1046D800019B1B681846FFF73CFE059BB3F1FF3FA3
:1046E80002D00598FFF7F4FE049BB3F1FF3F02D018
:1046F8000498FFF7EDFE029BB3F1FF3F02D002984A
:10470800FFF7E6FE039BB3F1FF3F02D00398FFF7E4
:10471800DFFE00BF07B05DF804FB000000B587B0FE
:10472800039002910192039B1B791A462C2303FBE9
:1047380002F3284A1344049300230593049B93F837
:104748002A30002B03D008230593059B3EE0039BEA
:104758001A68039B1B7919461F4B53F821301946D9
:104768001046FEF72DFF0346002B03D011230593B7
:10477800059B2BE002990398FFF7D9FE049B019A49
:104788005A60029B1A69049B1A60049B5B68002BA1
:1047980005D0029B1B7F19460398FFF72BFF039B4D
:1047A8001B681846FFF777FD049B00229A61049B5B
:1047B8000022DA61049B002283F82920049B00224E
:1047C8005A61049B012283F82A20059B184607B0EA
:1047D8005DF804FB740A00203035010000B585B08F
:1047E8000190019B1B791A462C2303FB02F3114A03
:1047F80013440393019B1B681846FFF755FD039B61
:104808005B68002B02D00198FFF72AFF0198FFF799
:104818003FFF019B1B681846FEF703FF039B00221E
:1048280083F82A20039B00225A6000BF05B05DF878
:1048380004FB00BF740A002000B585B00190009108
:104848004FF48E710198FFF7CDFC009B9A68009B8E
:104858001B6A13441B788DF80F30009B1B6A5A1C87
:10486800009B1A629DF80F3019460198FFF788FDE2
:1048780000BF05B05DF804FB00B583B0019000915E
:1048880016E0009B93F82830DBB2002B01D0002300
:1048980015E04FF48E710198FFF7B9FC034683F0D9
:1048A8000103DBB2002BECD100990198FFF7C4FF9C
:1048B800009B1A6A009B5B699A42EAD30123184657
:1048C80003B05DF804FB000000B587B003900291C7
:1048D8000192039B1B791A462C2303FB02F32F4AF0
:1048E80013440493039800F05BF80346002B03D0AD
:1048F80011230593059B4CE0049B019A5A61049B84
:10490800029A9A60049B00221A62049B002283F890
:10491800282000230593039B1B684FF48E711846CB
:10492800FFF760FC039B1B6808211846FFF735FD5D
:10493800039B1B6804991846FFF77EFF049B5B687E
:10494800002B25D1039B1B6804991846FFF794FF99
:10495800034683F00103DBB2002B02D00F2305933B
:1049680013E000BF039B1B684FF48E711846FFF7D6
:104978004EFC034683F00103DBB2002BF2D1039B0C
:104988001B680C211846FFF708FD049B00225A619A
:10499800059B184607B05DF804FB00BF740A0020A9
:1049A80082B00190019B1B791946074A2C2303FB0F
:1049B80001F3134414331B68002B14BF0123002395
:1049C800DBB2184602B07047740A002010B582B0F6
:1049D80001900091009B9B69002B08D14FF48471D2
:1049E8000198FFF7FFFB0198FFF7C1FC13E04FF4B4
:1049F80084710198FFF7F6FB009BDA68009B5B6AFD
:104A0800D4180198FFF7B3FC03462370009B5B6A38
:104A18005A1C009B5A6202B010BD00B589B00390C1
:104A28000291019201238DF81030029B0693019B9D
:104A38000593039B5B68039A116804AA104698477C
:104A480000BF09B05DF804FB00B587B00190009184
:104A580000238DF80830009B0493019B9B68039307
:104A6800019B00225A61019B5B68019A116802AAA6
:104A78001046984700BF07B05DF804FB00B589B041
:104A8800019000914FF400710198FFF7DCFB034699
:104A9800002B39D04FF492710198FFF7B8FB034609
:104AA800002B31D04FF492710198FFF79BFB4FF424
:104AB80001710198FFF7D7FB009B93F8293083F029
:104AC8000103DBB2002B03D004210198FFF765FC3A
:104AD80002238DF808300198FFF7CFFB03460593B2
:104AE800009B9B690493009BDB680393009B002257
:104AF8009A61009B0022DA61009B5B68009A11684A
:104B080002AA1046984752E004210198FFF79BFB40
:104B18000346002B4BD04FF484710198FFF777FBC5
:104B28000346002B43D000990198FFF74FFF009BE5
:104B38009A69009B5B6A9A4239D1009BDB69002B1A
:104B480019D0009BDB680793009B5B6A0693009B68
:104B5800DA69009B9A61009B1A69009BDA60009BE6
:104B68000022DA61009B00225A62079A069900988F
:104B7800FFF753FF1BE0009B93F8293083F00103F4
:104B8800DBB2002B03D004210198FFF706FC4FF499
:104B980001710198FFF767FB009B00229A61009B57
:104BA800596A009BDB681A460098FFF736FF4FF4F6
:104BB8008E710198FFF72BFB0346002B22D0009B38
:104BC8001A6A009B5B699A420DD2009B93F82830C1
:104BD800DBB283F00103DBB2002B04D0009901980B
:104BE800FFF72AFE0EE04FF48E710198FFF7FAFAEC
:104BF800009B5B69002B05D0009B5B6919460098F8
:104C0800FFF722FF4FF4A2710198FFF700FB03465C
:104C1800002B1CD04FF4A2710198FFF7E3FA009B18
:104C280093F82930002B03D000210198FFF7B5FB3A
:104C3800009B9B69002B0AD0009B00229A61009B75
:104C4800596A009BDB681A460098FFF7E6FE00BF2A
:104C580009B05DF804FB000008B503490348FFF7F5
:104C68000DFF00BF08BD00BF740A002000200040EF
:104C780082B003468DF807309DF8073003F01F0215
:104C880005499DF907305B09012000FA02F241F855
:104C9800232000BF02B0704700E100E082B0034665
:104CA8008DF807309DF8073003F01F0206499DF97B
:104CB80007305B09012000FA02F2203341F8232073
:104CC80000BF02B0704700BF00E100E082B00346B9
:104CD8008DF807309DF8073003F01F0206499DF94B
:104CE80007305B09012000FA02F2603341F8232003
:104CF80000BF02B0704700BF00E100E082B0034689
:104D080000918DF807309DF90730002B0CDA009BD5
:104D1800DAB20C499DF8073003F00F03043B520147
:104D2800D2B20B441A7609E0009BDAB206499DF923
:104D380007305201D2B20B4483F8002300BF02B0FF
:104D4800704700BF00ED00E000E100E082B0019094
:104D5800019B03F06043B3F1005F0CBF0123002304
:104D6800DBB2184602B0704782B00190019B1B0B62
:104D78005BB2184602B0704700B583B003460A46D6
:104D88008DF8073013468DF806309DF806209DF9FA
:104D9800073011461846FFF7B1FF00BF03B05DF8B2
:104DA80004FB00B583B003468DF807309DF9073042
:104DB8001846FFF78BFF9DF907301846FFF758FF95
:104DC80000BF03B05DF804FB00B583B003468DF85F
:104DD80007309DF907301846FFF760FF00BF03B0A2
:104DE8005DF804FB84B001900B46ADF80230BDF8C5
:104DF8000230019A134400221A60BDF80230019A69
:104E080013441B680393039B00BF04B0704782B030
:104E180001900B46ADF80230BDF80230019A1344F8
:104E28001B68002B14BF01230023DBB2184602B015
:104E3800704782B001900091019BD3F80022009B3B
:104E4800DB431A40019BC3F8002200BF02B0704741
:104E580082B001900091019B009AC3F8042300BF1F
:104E680002B0704782B001900091019B009AC3F88C
:104E7800082300BF02B0704784B00190019BD3F8AB
:104E880080340393019B039AC3F88024039B18463C
:104E980004B0704782B00190019B0822C3F8002536
:104EA80000BF02B0704782B00190019B0022C3F896
:104EB800002500BF02B0704784B0039002910192B0
:104EC800039B029AC3F80C25039B019AC3F8142587
:104ED80000BF04B0704700B583B001904FF0FF32B7
:104EE8004FF0FF310198FFF7E7FF00BF03B05DF80F
:104EF80004FB82B00190019BD3F80C35184602B030
:104F0800704782B00190019BD3F81435184602B05F
:104F1800704782B00190019BD3F80835184602B05B
:104F2800704782B00190019BD3F81035184602B043
:104F3800704784B0039002910192039B029AC3F8D0
:104F48000825039B019AC3F8102500BF04B07047D9
:104F580000B583B001904FF0FF324FF0FF31019858
:104F6800FFF7E7FF00BF03B05DF804FB82B00190D4
:104F78000B468DF803309DF80330019A1344012243
:104F88001A6000BF02B0704782B001900B468DF8DE
:104F9800033013468DF802309DF803209DF8023047
:104FA8001343DBB21A46019BC3F86C2500BF02B05D
:104FB800704782B001900091019B009AC3F82425A4
:104FC80000BF02B0704784B0039002910192029A28
:104FD800039BC3F84425039B019AC3F8482500BFE7
:104FE80004B0704782B00190019BD3F84C35184645
:104FF80002B0704782B00190019BD3F83C35184647
:1050080002B0704782B00190019B1B681F2B02D829
:105018004FF0A04306E0019B1B6803F01F02019BB1
:105028001A60024B184602B0704700BF00030050D8
:1050380000B585B00190084611461A4603468DF81A
:1050480003300B468DF8023013468DF8013001AB62
:105058001846FFF7D7FF03909DF803209DF802300C
:105068005B001A439DF801309B001A439DF81830E5
:105078001B0242EA03019DF81C301B04019A1943E4
:10508800039B02F5E07243F8221000BF05B05DF8FB
:1050980004FB00B585B0039000230193002300931F
:1050A8000023012201210398FFF7C2FF00BF05B0CA
:1050B8005DF804FB00B585B003900B468DF80B3006
:1050C8009DF80B2000230193002300931346002230
:1050D80000210398FFF7ACFF00BF05B05DF804FBA3
:1050E80000B585B0039000230193002300930023AB
:1050F800012200210398FFF79BFF00BF05B05DF870
:1051080004FB00B585B0019001AB1846FFF77AFFA4
:105118000390019B012202FA03F31946039800F059
:1051280004F800BF05B05DF804FB82B0019000915F
:10513800019B009AC3F8082500BF02B0704700B56C
:1051480083B001900091009B1B68B3F1FF3F09D029
:10515800009B1B681846FFF7D4FF009B1B68184686
:10516800FFF797FF009B5B68B3F1FF3F05D0009BFB
:105178005B6800211846FFF79DFF019B1A68009B9A
:105188009B6919461046FFF714FF019B1868009B9E
:10519800597D009B1B7D1A46FFF7F6FE019B186898
:1051A800009B1968009B5B681A46FFF785FE009B09
:1051B8001B7D012B22D1009B9B68B3F1FF3F05D0DB
:1051C800009B9B6800211846FFF774FF009BDB6873
:1051D800B3F1FF3F09D0009BDB681846FFF791FF4A
:1051E800009BDB681846FFF754FF019B1868009B7B
:1051F800D968009B9B681A46FFF79BFE00BF03B067
:105208005DF804FB00B583B001900B468DF80330C0
:10521800019B1B684FF488711846FFF7E3FD019B5B
:105228001B684FF490711846FFF7DCFD019B1B6863
:105238004FF492711846FFF7D5FD019B1B684FF498
:10524800A2711846FFF7CEFD019B1B680E49184650
:10525800FFF7FEFD019B1B681846FFF785FD034617
:105268001A469DF8033019461046FFF785FD019B45
:105278001B681846FFF778FD03461846FFF791FDAF
:1052880000BF03B05DF804FB1003020000B583B053
:105298000190019B1B6808491846FFF7E3FD019B35
:1052A8001B681846FFF760FD03461846FFF78CFD9C
:1052B80000BF03B05DF804FB1003020000B587B01F
:1052C8000190019B1B681846FFF713FE0590019B90
:1052D8001B681846FFF715FE0490019B1B681846CB
:1052E800FFF717FE0390019B1B681846FFF719FE8E
:1052F8000290019B1B681846FFF7EDFD019B1B6898
:105308001846FFF725FE059BB3F1FF3F02D005982D
:10531800FFF7E6FE049BB3F1FF3F02D00498FFF7C6
:10532800DFFE029BB3F1FF3F02D00298FFF7D8FEE1
:10533800039BB3F1FF3F02D00398FFF7D1FE00BFF4
:1053480007B05DF804FB000000B587B00390029138
:105358000192039B1B791A461346DB0013449B00FA
:10536800264A1344049300230593049B93F82030A2
:10537800002B03D008230593059B3AE0039B1A688A
:10538800039B1B7919461E4B53F8213019461046CA
:10539800FEF716F90346002B03D011230593059B4E
:1053A80027E002990398FFF7CAFE049B019A5A6006
:1053B800029B1A69049B1A60049B5B68002B05D04A
:1053C800029B1B7F19460398FFF71CFF039B1B6872
:1053D8001846FFF75FFD049B00229A61049B002298
:1053E800DA61049B00225A61049B012283F8202081
:1053F800059B184607B05DF804FB00BFA00A002013
:105408003C35010000B585B00190019B1B791A4617
:105418001346DB0013449B00104A13440393019B7B
:105428001B681846FFF73FFD039B5B68002B02D003
:105438000198FFF72BFF0198FFF740FF019B1B68BE
:105448001846FEF7EEF8039B002283F82020039B02
:1054580000225A6000BF05B05DF804FBA00A0020D6
:1054680000B589B0039002910192039B1B791A46FB
:105478001346DB0013449B00394A134405930298F2
:10548800FFF764FC034683F00103DBB2002B03D073
:1054980010230793079B5EE0039800F063F8034628
:1054A800002B03D011230793079B54E0059B019A17
:1054B8005A61059B029A9A6000230793039B1B6815
:1054C8004FF490711846FFF78DFC039B1B684FF44F
:1054D800AC711846FFF786FC039B1868059B996812
:1054E800059B5B691A46FFF76EFD039B1B68082145
:1054F8001846FFF73BFD059B5B68002B2AD1039BF1
:105508001B684FF490711846FFF781FC03468DF82D
:105518001B30039B1B684FF4AC711846FFF777FCF0
:1055280003468DF81A309DF81B3083F00103DBB277
:10553800002B06D09DF81A3083F00103DBB2002B54
:10554800DDD19DF81A30002B01D00F230793059B5E
:1055580000225A61079B184609B05DF804FB00BF9A
:10556800A00A002082B00190019B1B791946084AC5
:105578000B46DB000B449B00134414331B68002BC1
:1055880014BF01230023DBB2184602B0704700BFE6
:10559800A00A002000B589B003900291019201236E
:1055A8008DF81030029BDBB28DF81830019B059303
:1055B800039B5B68039A116804AA1046984700BFCA
:1055C80009B05DF804FB00B587B001900091002395
:1055D8008DF80830009BDBB28DF81030019B9B687A
:1055E8000393019B00225A61019B5B68019A116831
:1055F80002AA1046984700BF07B05DF804FB00B543
:1056080089B0019000914FF492710198FFF7FFFB68
:105618000346002B24D04FF492710198FFF7E2FB68
:1056280002238DF808300198FFF726FC03460593FE
:105638000198FFF7DFFC0346DBB28DF81030009BC2
:10564800DB680393009B00229A61009B0022DA61C9
:10565800009B5B68009A116802AA104698473BE0D5
:105668004FF488710198FFF7D2FB0346002B33D023
:105678004FF488710198FFF7B5FB0198FFF7BAFC62
:105688000790009B9B69079A9A4225D1009BDB698A
:10569800002B17D0009BDB68069320210198FFF7A9
:1056A800C8FB009BDA69009B9A61009B1A69009B02
:1056B800DA60009B0022DA61069A07990098FFF7E2
:1056C80069FF09E0009B00229A61009BDB681A468B
:1056D80007990098FFF75EFF4FF4A2710198FFF752
:1056E80096FB0346002B15D04FF4A2710198FFF7E3
:1056F80079FB009B9B69002B0CD0009B00229A61D0
:105708000198FFF777FC0146009BDB681A46009872
:10571800FFF740FF4FF490710198FFF778FB0346BD
:10572800002B10D04FF490710198FFF75BFB009BA2
:105738005B69002B07D00198FFF754FC0346194614
:105748000098FFF740FF00BF09B05DF804FB0000B8
:1057580008B503490348FFF752FF00BF08BD00BF63
:10576800A00A00200020004000B585B00190019BF0
:10577800002B0AD0074B43F001030393019B9B01C5
:105788000293039B0298984700E000BF05B05DF8BC
:1057980004FB00BF4035010000B583B00190019BB8
:1057A800002B0AD04FF47A70FFF7DEFF019B013B14
:1057B8000193019B002BF5D100E000BF03B05DF819
:1057C80004FB00B583B00190012009F045FD00BF3E
:1057D80003B05DF804FB000000B58BB04FF4004146
:1057E8000020FAF7FDFF0990099B002B02D00998C9
:1057F800FBF7D0FEFAF792FF02F05CFBFCF714FC13
:105808000890154A01211548FCF742FC134B1B6808
:10581800002221211846FCF76BFC00F079FA01AB55
:10582800184609F0CBFB0E4B019301AB184609F063
:10583800DDFB02F083FF0346002118460BF032FF20
:105848000790F022F021079802F0BFFE1420FFF71E
:10585800A3FF0AF053FEF9E7CB570000C40A002063
:105868001D5F000000B585B00190019B002B0AD098
:10587800074B43F001030393019B9B010293039B96
:105888000298984700E000BF05B05DF804FB00BF30
:105898008035010082B00190019B1B681F2B02D844
:1058A8004FF0A04306E0019B1B6803F01F02019B19
:1058B8001A60024B184602B0704700BF0003005040
:1058C80000B585B00190084611461A4603468DF882
:1058D80003300B468DF8023013468DF8013001ABCA
:1058E8001846FFF7D7FF03909DF803209DF8023074
:1058F8005B001A439DF801309B001A439DF818304D
:105908001B0242EA03019DF81C301B04019A19434B
:10591800039B02F5E07243F8221000BF05B05DF862
:1059280004FB00B585B00390002301930023009386
:105938000023012201210398FFF7C2FF00BF05B031
:105948005DF804FB00B585B0019001AB1846FFF780
:10595800A1FF0390019B012202FA03F31946039861
:1059680000F018F800BF05B05DF804FB00B585B07D
:10597800019001AB1846FFF78DFF0390019B0122B0
:1059880002FA03F31946039800F00EF800BF05B0B9
:105998005DF804FB82B001900091019B009AC3F866
:1059A800082500BF02B0704782B001900091019BAA
:1059B800009AC3F80C2500BF02B0704700B583B049
:1059C8000190019B002B0AD04FF47A70FFF74AFF31
:1059D800019B013B0193019B002BF5D100E000BF27
:1059E80003B05DF804FB000082B001900091034B06
:1059F80001221A7000BF02B0704700BFC80A002019
:105A080000B589B003468DF80730134B00221A7091
:105A18000DF1070303930123049300230593002347
:105A2800069303A9012300220C48FEF79FF907906B
:105A3800079B002B02D00798FBF7ACFD00BF064B75
:105A48001B78DBB283F00103DBB2002BF7D100BF78
:105A580009B05DF804FB00BFC80A00204835010002
:105A680000B589B001900091144B00221A70009B78
:105A7800002B1ED0019B0393009B049300230593E6
:105A88000023069303A9002300220D48FEF76EF9B0
:105A98000790079B002B02D00798FBF77BFD00BF00
:105AA800064B1B78DBB283F00103DBB2002BF7D186
:105AB80000E000BF09B05DF804FB00BFC80A002081
:105AC8004835010000B585B003460A46ADF80630F2
